:030000000200C833
:0C00C800787FE4F6D8FD75811E0200551B
:1000B500484920657672796F6E650073757368615E
:0300C5006E740056
:10005500E4F590F5A012009C1200327BFF7A00793E
:10006500B51200797FC01200D47BFF7A0079C012E7
:04007500007980FE90
:10009C007F011200D47F061200D47F0C1200D47F93
:0900AC00381200D47F800200D458
:0A00D4008F90C2A012002EC2A222DB
:0A00DE008F90D2A012002EC2A222C1
:100079008B1C8A1D891EAB1CAA1DA91E120003FF19
:1000890060101200DE7401251EF51EE4351DF51DF4
:0300990080E422DE
:08002E00C2A1D2A27F017E00F5
:04003600AB07AA0664
:10003A009000007C037DE8AF03AE0212001CC3E50A
:0A004A00829FE5839E5003A380E926
:010054002289
:10000300BB010689828A83E0225002E722BBFE02FB
:09001300E32289828A83E493222E
:10001C00EF8DF0A4A8F0CF8CF0A428CE8DF0A42EF8
:02002C00FE22B2
:00000001FF
